:020000040000fa
:080000000002040000000000f2
:020000040000fa
:10000800d2020000d2020000d2020000d202000098
:10001800d2020000d2020000d2020000d202000088
:10002800d2020000d2020000d20200009a070000ab
:10003800d2020000d2020000d2020000d202000068
:10004800d2020000d2020000d2020000d202000058
:10005800d2020000d2020000d2020000d202000048
:10006800d2020000d2020000d2020000d202000038
:10007800d2020000d2020000d2020000d202000028
:10008800d2020000d2020000d2020000d202000018
:10009800d2020000d2020000d2020000d202000008
:1000a800d2020000d2020000d2020000d2020000f8
:1000b800d2020000d2020000d2020000d2020000e8
:1000c800d2020000d2020000d2020000d2020000d8
:1000d800d2020000d2020000d2020000d2020000c8
:1000e800d2020000d2020000d2020000d2020000b8
:1000f800d2020000d2020000d2020000d2020000a8
:10010800d2020000d2020000d2020000d202000097
:10011800d2020000d2020000d2020000d202000087
:10012800d2020000d2020000d2020000d202000077
:10013800d2020000d2020000d2020000d202000067
:10014800d2020000d2020000d2020000d202000057
:10015800d2020000d2020000d2020000d202000047
:10016800d2020000d2020000d2020000d202000037
:10017800d2020000d2020000d2020000d202000027
:10018800d2020000d2020000d2020000d202000017
:10019800d2020000d2020000d2020000d202000007
:1001a800d2020000d2020000d2020000d2020000f7
:1001b800d2020000d2020000d2020000d2020000e7
:1001c800d2020000d2020000d2020000d2020000d7
:1001d800d2020000d2020000d2020000d2020000c7
:1001e800d2020000d2020000d2020000d2020000b7
:0801f800d2020000d202000057
:020000040000fa
:10020800d2020000d2020000d2020000d202000096
:10021800d2020000d2020000d2020000d202000086
:10022800d2020000d2020000d20200009a070000a9
:10023800d2020000d2020000d2020000d202000066
:10024800d2020000d2020000d2020000d202000056
:10025800d2020000d2020000d2020000d202000046
:10026800d2020000d2020000d2020000d202000036
:10027800d2020000d2020000d2020000d202000026
:10028800d2020000d2020000d2020000d202000016
:10029800d2020000d2020000d2020000d202000006
:1002a800d2020000d2020000d2020000d2020000f6
:1002b800d2020000d2020000d2020000d2020000e6
:1002c800d2020000d2020000d2020000d2020000d6
:1002d800d2020000d2020000d2020000d2020000c6
:1002e800d2020000d2020000d2020000d2020000b6
:1002f800d2020000d2020000d2020000d2020000a6
:10030800d2020000d2020000d2020000d202000095
:10031800d2020000d2020000d2020000d202000085
:10032800d2020000d2020000d2020000d202000075
:10033800d2020000d2020000d2020000d202000065
:10034800d2020000d2020000d2020000d202000055
:10035800d2020000d2020000d2020000d202000045
:10036800d2020000d2020000d2020000d202000035
:10037800d2020000d2020000d2020000d202000025
:10038800d2020000d2020000d2020000d202000015
:10039800d2020000d2020000d2020000d202000005
:1003a800d2020000d2020000d2020000d2020000f5
:1003b800d2020000d2020000d2020000d2020000e5
:1003c800d2020000d2020000d2020000d2020000d5
:1003d800d2020000d2020000d2020000d2020000c5
:1003e800d2020000d2020000d2020000d2020000b5
:0803f800d2020000d202000055
:020000040000fa
:100400002f8020000e7f22000e01880000000000d7
:10041000000020000000e000020032000001200087
:10042000200288000c000700a07d200001002000b1
:100430000f000700000020000000e0000200320072
:100440000000020000000000b607020000000000eb
:100450000040da000000fe00200020000000e00064
:100460000200320010002000900188000000060009
:10047000a1028800800078000000eb001a0037001d
:10048000e280400054a0b4009101ba00e280400034
:1004900054a0b4009102ba00e280400054a0b4001d
:1004a0000002eb00472bde00f507b200a601880032
:1004b000602ce10008003a000049eb000201e8006e
:1004c000020039003420ec0002f0a0008301e900b2
:1004d000f9ff3e00040037006128e100010032000e
:1004e0000082eb00040007001101ba000200e000e6
:1004f000e3ff3a000000060004d0a300e20f490029
:100500001c003900810278003549ba000201e80078
:10051000020039003420ec0002f0a0008301e90061
:100520000f0032002549ba000201e800020039003c
:100530003420ec0002f0a0008301e9000800320042
:100540000400e0000600320015c9ba000201e8000c
:10055000020039003420ec0002f0a0008301e90021
:100560008180e80054a0b4000300e000e2ff3a00fc
:10057000000006009102ba00055978008301e900e5
:10058000f7ff3200c82ade00055978008301e90030
:10059000f3ff32000400e000f1ff320011d9ba008d
:1005a000eeff37000040da000000fe00889fbe002a
:1005b0008a9fbe008c1f780099000700a0003300be
:1005c00003866c006450e1002e0032006420e100dc
:1005d000330032006150e1002f0032006120e10061
:1005e0003100320085855500eb07b000090020007e
:1005f00008042000050037000804440089844c00ea
:100600000a0031000603430087834b0000015300ba
:1006100081815b00f8ff33000203be000800a000e8
:100620000804440089844c00f6ff3900c639dd0017
:100630008301730001003200130020008904d100ff
:100640000884d3000998a300050032000800a70021
:100650000300a0008904d1000884d3008b05e800c2
:100660008904d1000884d3000001eb000281d2008c
:100670003000070001f0a1000cf0a70001f0a0007d
:10068000780037006420e1007a0032000801be00e3
:100690000200be00f7ff37006120e1007500320064
:1006a0006000b800f3ff37000000200001f82700c9
:1006b000f0ff37000001be00440007000470a700ef
:1006c00003f0a10003f8a30013003a006509b1008c
:1006d00010003200090035006928e10002003500f1
:1006e0000100280000000500000040008180480053
:1006f0008502e900fcff3a0000000600f88f420086
:10070000050035008100d1000080d3008502e8009b
:10071000fcff3a00000006008000eb00000005002e
:100720004f89de0082017800890037006011b8002f
:100730009700370081002000618055000b003d00cc
:100740000b00200061fe2f000100e1001d003400bd
:1007500082817100610164008904d1000884d300a2
:100760000000e800faff3a00710020006100640018
:1007700003007000020060000900320061044400c0
:10078000e0844c000988a500050032008b05e800d4
:100790006808e10002003a008904d1000884d3000f
:1007a000f20f20000258e10005003d00c75ddd00aa
:1007b000f907b20089807500080078000000060083
:1007c0000bf827008b00780000000500c70ade0048
:1007d000f107b200f50fb20008003200e1cf42008d
:1007e000020032000170a00024000500810f70009b
:1007f000010032000408050044000500810f70006c
:1008000002003a00140005008502e90000004000e3
:1008100081c04800fcff3b000170a00024000500df
:100820000004be00e9ff07000003be000405be008f
:100830000200be00e5ff0700844f750000000600bf
:100840000200be006450e100050036006420e100b3
:10085000020036000968a30001003a000800be004b
:100860000160a0004f0678004f05be004f04be0097
:1008700000000600f0ff2f00f1ff2700f9ff37000e
:10088000889fbe008a9fbe008c1f7800e4ff07008f
:10089000ebff330003866c006450e100240032005b
:1008a0006420e100270032006150e10022003200a4
:1008b0006120e100210032008b854200eb07b1008e
:1008c0000134b800003ab8000804420089844a00a4
:1008d000013ab8000030b8008880400009014a00a1
:1008e00004003300000040008180480002014900fc
:1008f0008b05e900c909dd008301700001003200a9
:1009000013002000c814de004814dd004709de0093
:100910001200b200c808de000884700085ff0700de
:1009200001f0a1000cf0a70001f0a000cdff3700fe
:100930006120e100cfff32000801be000200be00ce
:10094000f7ff37006150e100fcff3a00c9ff3700b4
:10095000881f7800030478000300e00007003d00d2
:1009600060001000e080180060011900e0811900ab
:1009700002003b0001f02d000300370004000700d7
:1009800008f0a70001f0a0004f0478000000060066
:10099000889fbe008a9fbe00008270000402710022
:1009a00004827100260032000004be000200be0076
:1009b0006011b8006b092000950220000182cf0071
:1009c0000a0039000541b1000082cf00070039005c
:1009d0000541b1000982cf00040039000541b10092
:1009e0000882cf00010039000541b10005425200e4
:1009f000120032000a003b00828171006101640034
:100a00008100d1000080d3008984d3000884d30002
:100a10008b05e8000442e800f7ff3a0007003700c2
:100a20000804440089844c0000004800818048008c
:100a30008b05e9000442e900f9ff3a003dff070099
:0c0a40004f05be004f04be000000060081
:020000040000fa
:100a4c000000fa000002eb00540c88000002eb00de
:100a5c00940c8800151f800004fc2f000482620097
:100a6c00d400b300141f88008de1a8008c61a8008d
:100a7c000080fa00000006000000fa000002eb0003
:100a8c00741388000002eb00841388007413800038
:100a9c0004a0a10004b0a10004c0a100741388003c
:100aac008513800004fe2f0004826200c400b30092
:100abc0084138800741380000400a1000410a000ab
:100acc000420a000741388000002eb00a41388001b
:100adc005c22a900e41280000440a1000450a10093
:100aec00e41288000002eb00941288005de2a8007a
:100afc00f4f92000c412880051e2a800841280008e
:100b0c000440a0000450a000841288005022a900c8
:100b1c009460a9008460a9000080fa00000006001f
:100b2c000000fa000080fa00000006000200fa0043
:100b3c00889fbe00000f780014002000044088003d
:100b4c008fa1a8008fc1a800c4128000050020004e
:100b5c000400be00f2fe07000002be00d2cc2c0046
:100b6c00c3e423000400be0042ff07000002be00e5
:100b7c000400be00ccfe07000002be000402780098
:100b8c00a41388000002eb00641288001e02780097
:100b9c00cfa2de000400be00defe07000002be0095
:100bac0002002000031024000400be0031ff0700e7
:100bbc000002be0062662600633e24000400be00f4
:100bcc0077fe07000002be000404be00c4128000c1
:100bdc00050020000400be00d1fe07000002be008c
:100bec000401be000800be0022ff07000002be0088
:100bfc000400be00acfe07000002be000402780038
:100c0c00741288009460a80000000000044080006a
:100c1c00e00f5200fdff3a009460a9004f04be00a3
:100c2c000080fa00000006000200fa00889fbe0057
:100c3c00000f780014002000044088008fa1a90048
:100c4c008fc1a900c4128000050020000400be0062
:100c5c00b3fe07000002be00d2cc2c00c3e423007c
:100c6c000400be0003ff07000002be000400be002b
:100c7c008dfe07000002be0004027800a413880059
:100c8c000002eb00641288001e027800cfa2de0086
:100c9c000400be009ffe07000002be000200200000
:100cac00031024000400be00f2fe07000002be0088
:100cbc0062662600633e24000400be0038fe070076
:100ccc000002be000404be00c41280000500200017
:100cdc000400be0092fe07000002be000401be002c
:100cec000800be00e3fe07000002be000400be00c8
:100cfc006dfe07000002be0004027800741288002a
:100d0c009460a8000000000004408000e00f520036
:100d1c00fdff3a009460a9004f04be000080fa0069
:100d2c00000006000200fa00889fbe00000f780049
:100d3c0014002000044088008fa1a8008fc1a900d6
:100d4c00c4128000050020000400be0074fe0700e1
:100d5c000002be00d2cc2c00c3e423000400be0071
:100d6c00c4fe07000002be000400be004efe0700d9
:100d7c000002be0004027800a41388000002eb00fd
:100d8c00641288001e027800cfa2de000400be00b0
:100d9c0060fe07000002be000200200003102400c9
:100dac000400be00b3fe07000002be00626626000f
:100dbc00633e24000400be00f9fd07000002be00e3
:100dcc000404be00c4128000050020000400be0014
:100ddc0053fe07000002be000401be000800be0066
:100dec00a4fe07000002be000400be002efe070099
:100dfc000002be0004027800741288009460a800ff
:100e0c000000000004408000e00f5200fdff3a009b
:100e1c009460a9004f04be000080fa000000060098
:100e2c000200fa00889fbe00000f7800140020001a
:100e3c00044088008fa1a9008fc1a800c4128000b3
:100e4c00050020000400be0035fe07000002be00b5
:100e5c00d2cc2c00c3e423000400be0085fe0700a6
:100e6c000002be000400be000ffe07000002be0020
:100e7c0004027800a41388000002eb0064128800be
:100e8c001e027800cfa2de000400be0021fe070087
:100e9c000002be0002002000031024000400be006b
:100eac0074fe07000002be0062662600633e24004a
:100ebc000400be00bafd07000002be000404be0020
:100ecc00c4128000050020000400be0014fe0700c0
:100edc000002be000401be000800be0065fe070053
:100eec000002be000400be00effd07000002be00c1
:100efc0004027800741288009460a80000000000be
:100f0c0004408000e00f5200fdff3a009460a900fd
:100f1c004f04be000080fa00000006000000fa003a
:100f2c000080fa0000000600841f78003200f800f0
:100f3c0014002000940188000000fa008460a900cd
:100f4c000002eb00a41388000002eb0004408800b0
:100f5c000080fa003200f9004f02780000400600d1
:100f6c000000fa00140880000480a1000490a10085
:100f7c0004a0a10014088800b1fe0700befe070003
:100f8c00e7fe070080162000e8fe07008016200010
:100f9c0025ff07008025200062ff07008025200028
:080fac009fff0700f7ff37006b
:020000040000fa
:100fb40000080000020000008000000000000000a3
:020000040000fa
:020000040002f8
:04aff800fff900005d
:00000001FF
